S01B00006769625F6D69725F6D616C5F6E655F7761676F2E7372656358
S113000010C015C014C013C012C011C010C00FC05E
S11300100EC00DC00CC00BC00AC009C008C007C088
S113002006C011241FBECFEDCDBF02D030C0E8CF33
S11300308FE08ABB87E08BBB2FEB8AED90E02150E9
S113004080409040E1F700C000008BE08BBB2FEBB9
S11300508AED90E0215080409040E1F700C000001C
S11300608DE08BBB2FEB8AED90E0215080409040D7
S1130070E1F700C000008EE08BBB2FEB8AED90E02F
S1130080215080409040E1F700C00000D3CFF894A5
S1050090FFCF9C
S9030000FC
