:1000000010C015C014C013C012C011C010C00FC062
:100010000EC00DC00CC00BC00AC009C008C007C08C
:1000200006C011241FBECFEDCDBF02D030C0E8CF37
:100030008FEF8ABB8EE08BBB2FEF80E792E02150E1
:1000400080409040E1F700C000008DE08BBB2FEFB7
:1000500080E792E0215080409040E1F700C000002E
:100060008BE08BBB2FEF80E792E0215080409040E7
:10007000E1F700C0000087E08BBB2FEF80E792E044
:10008000215080409040E1F700C00000D3CFF894A9
:02009000FFCFA0
:00000001FF
